S01200004D6963726F436F6E74722E7372656312
S113000045C0000060C000005EC000005CC000008D
S11300105AC0000058C0000056C0000054C0000080
S113002052C0000050C000004EC000004CC0000090
S11300304AC0000048C0000046C0000044C00000A0
S113004042C0000040C000003EC000003CC00000B0
S11300503AC0000038C0000036C0000034C00000C0
S113006032C0000030C000002EC000002CC00000D0
S11300702AC0000028C0000026C0000024C00000E0
S113008022C0000020C000001EC0000011241FBEBA
S1130090CFEFD0E1DEBFCDBF11E0A0E0B1E0E0E7FB
S11300A0F4E000E00BBF02C007900D92A239B10743
S11300B0D9F721E0A2E9B1E001C01D92A639B20747
S11300C0E1F7CDD1D3C19CCF181619066CF420E00A
S11300D030E0E9EFF0E03197F1F700C000002F5F66
S11300E03F4F82179307A9F708951092710080E299
S11300F080937000089584EA80937400E4E7F0E04C
S113010080818823ECF708958093730084E88093BA
S11301107400E4E7F0E080818823ECF70895FF920F
S11301200F931F93CF93DF93C0E0D0E004E710E078
S11301300F2EF4E9FF2EF02DDEDF80EE90E0E4DFF9
S1130140CE01E2DFCE01DD230CF40196959587956F
S1130150FC01E050FF4F808190E0D6DFF801F0828F
S11301602296C031D10541F7DF91CF911F910F91B4
S1130170FF90089580910001D2CF089580910801E5
S1130180CECF0895CF92DF92FF920F931F93CF9318
S1130190DF9305E511E0C0E0D0E00F2EF4E7CF2EA9
S11301A0D12CF02D0F2EF4E9FF2EF02DA4DF80EEDC
S11301B090E0AADFCE01A8DFF80181918F0190E0E1
S11301C0A3DFF601F0822296C031D10579F7DF91E1
S11301D0CF911F910F91FF90DF90CF900895EF92F0
S11301E0FF921F93CF93DF93C0E0D0E00F2EF4E78C
S11301F0EF2EF12CF02D14E97EDF80EE90E084DF09
S1130200CE0182DF80E090E07FDFF7011083229649
S1130210C031D10589F7DF91CF911F91FF90EF9005
S11302200895BF92CF92DF92EF92FF920F931F93A4
S1130230CF93DF93209194012BBB209194013091B3
S11302409501233331050CF04CC04091920150913B
S113025093014230510531F4215031093093950115
S113026020939401009194011091950180179107B6
S11302701CF531C040DF80EE90E046DFCE0144DF64
S1130280F80181918F0190E03FDFF701B08222965F
S1130290C031D10579F782EE94E016DF0091940124
S11302A0109195010F5F1F4F1093950100939401D6
S11302B0C016D1065CF40FC06C010F2EF4E7EF2ECC
S11302C0F12CF02D0F2EF4E9BF2EF02D0B5A1E4FFA
S11302D0C0E0D0E0CFCF81E090E090939301809391
S11302E09201DF91CF911F910F91FF90EF90DF90DA
S11302F0CF90BF900895BF92CF92DF92EF92FF927A
S11303000F931F93CF93DF93209194013091950124
S1130310121613060CF04CC04091920150919301B7
S11303204130510531F42F5F3F4F309395012093B5
S113033094010091940110919501081719071CF577
S113034031C0D9DE80EE90E0DFDECE01DDDEF801E3
S113035081918F0190E0D8DEF701B0822296C031FE
S1130360D10579F782EE94E0AFDE0091940110910B
S113037095010150110910939501009394010C15F6
S11303801D055CF40FC06C010F2EF4E7EF2EF12C69
S1130390F02D0F2EF4E9BF2EF02D095E1E4FC0E0A4
S11303A0D0E0CFCF82E090E09093930180939201CC
S11303B0DF91CF911F910F91FF90EF90DF90CF903D
S11303C0BF90089589B38430C9F028F4813041F096
S11303D0823069F00895883099F0803199F0089559
S11303E0809194019091950141961BCF089580913D
S11303F094019091950141977ECF0895F0CE089590
S1130400B9CE0895BBCE08951F93CF93DF936DDECD
S113041072DE80EE90E078DE81E290E075DEC4E783
S1130420D0E014E9188367DE80EE90E06DDE80EAA8
S113043090E06ADE18835FDE80EE90E065DE83EE96
S113044090E062DE188357DE80EE90E05DDE81E8A6
S113045090E05ADE1883DF91CF911F9108958FEFBA
S113046081BB84BBD1DF8EDEADDFFECFF894FFCF3E
S11304701E21D2C0D2CC211E1E21D2C0DEC0211E1C
S11304801E21D2C0CCD2211E9CB6A2A2A2B69C80B0
S1130490809C9C9CFFBE9C888080888C8A888888ED
S11304A0BE80809C9C9CFFBE9C8880809CA2A09067
S11304B08884BE80809C9C9CFFBE9C8880809CA27B
S11304C0A098A0A29C9CB6A2A2A2B69C8080889C64
S11304D0BEFF9C9C9C8080888C8A888888BE808093
S11304E0889CBEFF9C9C9C80809CA2A0908884BE1B
S11304F08080889CBEFF9C9C9C80809CA2A098A02D
S1050500A29CB7
S9030000FC
