:1000000045C0000060C000005EC000005CC0000091
:100010005AC0000058C0000056C0000054C0000084
:1000200052C0000050C000004EC000004CC0000094
:100030004AC0000048C0000046C0000044C00000A4
:1000400042C0000040C000003EC000003CC00000B4
:100050003AC0000038C0000036C0000034C00000C4
:1000600032C0000030C000002EC000002CC00000D4
:100070002AC0000028C0000026C0000024C00000E4
:1000800022C0000020C000001EC0000011241FBEBE
:10009000CFEFD0E1DEBFCDBF11E0A0E0B1E0E4E4FE
:1000A000F6E000E00BBF02C007900D92A435B10747
:1000B000D9F721E0A4E5B1E001C01D92A836B2074E
:1000C000E1F7B7D2BDC29CCFDF92EF92FF920F93C0
:1000D0001F93CF93DF9380916401909165018370AA
:1000E0009078992324F401978C6F9F6F01969093D9
:1000F000650180936401009751F488E0ECE5F1E03C
:10010000A4E5B1E001900D928A95E1F776C018164A
:1001100019060CF072C0E12CF12CA4E5B1E0DD244D
:10012000DA940CE511E01C9211961C92119712962C
:100130001C92129713961C92139714961C92149764
:1001400015961C92159716961C92169717961C9248
:100150001797D4BAE5BACCE5D1E040E050E01CC036
:10016000CB01022E02C0959587950A94E2F7817023
:100170009927042E02C0880F991F0A94E2F79291E2
:10018000892B80832F5F3F4FAE17BF0749F74F5F23
:100190005F4F4830510539F0699170E0ECE5F1E0CE
:1001A00020E030E0DDCF17968C91179716969C9142
:1001B000169715962C91159714963C9114971396B3
:1001C0004C91139712965C91129711966C9111971E
:1001D0007C91F80170836183528343833483258348
:1001E00096838783FFEFEF1AFF0A80916401909155
:1001F0006501E816F9060CF496CFDF91CF911F91B7
:100200000F91FF90EF90DF900895181619066CF487
:1002100020E030E0E9EFF0E03197F1F700C00000B6
:100220002F5F3F4F82179307A9F70895109271002F
:1002300080E280937000089584EA80937400E4E77C
:10024000F0E080818823ECF708958093730084E8C0
:1002500080937400E4E7F0E080818823ECF7089550
:10026000DF92EF92FF920F931F93CF93DF937C0166
:10027000C0E0D0E004E710E00F2EF4E9DF2EF02D0F
:10028000DBDF80EE90E0E1DFCE01DFDFCE01DD23BA
:100290000CF4019695958795F701E80FF91F808179
:1002A00090E0D3DFF801D0822296C031D10541F72A
:1002B000DF91CF911F910F91FF90EF90DF90089504
:1002C000FF920F931F93CF93DF93E0916601F0911C
:1002D0006701E05FFE4F87819681258134814381EC
:1002E00052816181ACE5B1E070817C9311966C9391
:1002F000119712965C93129713964C93139714963A
:100300003C93149715962C93159716969C931697D5
:1003100017968C93D9DEC0E0D0E004E710E00F2EF2
:10032000F4E9FF2EF02D88DF80EE90E08EDFCE0125
:100330008CDFCE01DD230CF4019695958795FC01A9
:10034000EC5AFE4F808190E080DFF801F082229627
:10035000C031D10541F7DF91CF911F910F91FF90EF
:100360000895EF92FF921F93CF93DF93C0E0D0E008
:100370000F2EF4E7EF2EF12CF02D14E95DDF80EE67
:1003800090E063DFCE0161DF80E090E05EDFF701A7
:1003900010832296C031D10589F7DF91CF911F914B
:1003A000FF90EF900895BF92CF92DF92EF92FF926D
:1003B0000F931F93CF93DF93209166012BBBE091A6
:1003C0006601F0916701EC33F1050CF055C08E1712
:1003D0009F070CF44CC06C010F2EFCE5EF2EF1E0F2
:1003E000FF2EF02D04E710E00F2EF4E9BF2EF02DC4
:1003F000E05FFE4F87819681258134814381528160
:1004000061817081F70170836183528343833483F8
:1004100025839683878358DEC0E0D0E00DDF80EE31
:1004200090E013DFCE0111DF9E01DD2314F42F5F76
:100430003F4F35952795F901EC5AFE4F808190E0AA
:1004400004DFF801B0822296C031D10539F782EE7F
:1004500094E0DBDEE0916601F09167013196F09364
:100460006701E0936601CE16DF060CF0C1CF31972D
:10047000F0936701E0936601DF91CF911F910F9197
:10048000FF90EF90DF90CF90BF900895BF92CF92F2
:10049000DF92EF92FF920F931F93CF93DF93E09140
:1004A0006601F0916701E331F1050CF455C0E817DE
:1004B000F9070CF44CC06C010F2EFCE5EF2EF1E0B7
:1004C000FF2EF02D04E710E00F2EF4E9BF2EF02DE3
:1004D000E05FFE4F8781968125813481438152817F
:1004E00061817081F7017083618352834383348318
:1004F000258396838783E8DDC0E0D0E09DDE80EE33
:1005000090E0A3DECE01A1DE9E01DD2314F42F5F77
:100510003F4F35952795F901EC5AFE4F808190E0C9
:1005200094DEF801B0822296C031D10539F782EE0F
:1005300094E06BDEE0916601F09167013197F093F2
:100540006701E0936601EC15FD050CF0C1CF319613
:10055000F0936701E0936601DF91CF911F910F91B6
:10056000FF90EF90DF90CF90BF90089589B38430D3
:10057000D9F028F4813051F0823079F0089580313B
:10058000C9F08032D9F0883041F510C08091660101
:1005900090916701449607CF0895809166019091EC
:1005A0006701449773CF0895DCCE089588E091E009
:1005B00057CE089580E091E053CE089581E090E019
:1005C00020916401309165012130310511F480E002
:1005D00090E0909365018093640108951F93CF93F9
:1005E000DF9324DE29DE80EE90E02FDE81E290E0D2
:1005F0002CDEC4E7D0E014E918831EDE80EE90E024
:1006000024DE80EA90E021DE188316DE80EE90E0A2
:100610001CDE83EE90E019DE18830EDE80EE90E0A3
:1006200014DE81E890E011DE1883DF91CF911F91F5
:1006300008958FEF81BB84BBD1DF42DE97DFFECF11
:04064000F894FFCF5C
:100644001E21D2C0CCD2211E1E21D2C0D2CC211E4A
:10065400009CB6A2A2A2B69C8080889CBEFF9C9CF3
:100664009C80808080888C8A888888BE8080889CD2
:10067400BEFF9C9C9C0080809CA2A0908884BE802D
:100684008080889CBEFF9C9C9C8080809CA2A098BB
:04069400A0A29C8004
:00000001FF
