S01200004D6963726F436F6E74722E7372656312
S113000045C000004BC0000049C0000047C00000CC
S113001045C0000043C0000041C000003FC00000D4
S11300203DC000003BC0000039C0000037C00000E4
S113003035C0000033C0000031C000002FC00000F4
S11300402DC000002BC0000029C0000027C0000004
S113005025C0000023C0000021C000001FC0000014
S11300601DC000001BC0000019C0000017C0000024
S113007015C0000013C0000011C000000FC0000034
S11300800DC000000BC0000009C0000011241FBEF9
S1130090CFEFD0E1DEBFCDBFDED017C1B1CF181690
S11300A019066CF420E030E0E9EFF0E03197F1F765
S11300B000C000002F5F3F4F82179307A9F70895F0
S11300C08FEF87BBBB98C09A82E58DB908958FB92D
S11300D0779BFECF089598B321E030E002C0220F51
S11300E0331F8A95E2F72095292328BB089598B3F6
S11300F021E030E002C0220F331F8A95E2F7292B5A
S113010028BB089580E0E7DF89E0E1DF8FEFDFDFE0
S113011080E0EDDF80E0DFDF8AE0D9DF8FEFD7DF3B
S113012080E0E5DF80E0D7DF8BE0D1DF83E0CFDF65
S113013080E0DDDF80E0CFDF8CE0C9DF81E0C7DF76
S113014080E0D5CF08957F928F929F92AF92BF9215
S1130150CF92DF92EF92FF920F931F93CF93DF938F
S11301607C01AA24A394B12CCC24DD24C81AD90A76
S11301700AE010E0782E8F2C9A2C1E141F0434F5FC
S1130180F50182E0A816B10484F0D72DC82D21E032
S113019030E08D2F9C2FB80171D0D62FC72F2F5F41
S11301A03F4F2E173F07A9F702C0D72DC82D80E077
S11301B092DF892D8CDF8D2F9C2FB8015FD087DFD4
S11301C080E095DF88EE93E06ADF2FC0DC2DCD2D33
S11301D084E0A81631F0F50182E0A816B10454F4C5
S11301E016C080E078DF84E072DF8AE270DF80E0AE
S11301F07EDF23C021E030E08D2F9C2FB8013ED05C
S1130200D62FC72F2F5F3F4F2E173F07A9F780E048
S113021062DF892D5CDF8D2F9C2FB8012FD057DF33
S113022080E065DF88EE93E03ADF8FEFA81AB80A22
S113023085E0A816B10409F09FCFDF91CF911F91FB
S11302400F91FF90EF90DF90CF90BF90AF909F9071
S11302508F907F900895CF93DF9381E087BB30DF49
S113026051DFC6EFDFEFCE016EDF2196C436D10534
S1130270D1F781E090E0DF91CF91089597FB072EAD
S113028016F4009406D077FD08D00BD007FC05D0F7
S11302903EF4909581959F4F0895709561957F4F99
S11302A00895AA1BBB1B51E107C0AA1FBB1FA617B9
S11302B0B70710F0A61BB70B881F991F5A95A9F70B
S11102C080959095BC01CD010895F894FFCF70
S9030000FC
