S01200004D6963726F436F6E74722E7372656312
S113000045C0000060C000005EC000005CC000008D
S11300105AC0000069C0000097C0000054C000002E
S113002052C0000050C000004EC000004CC0000090
S11300304AC0000048C0000046C0000044C00000A0
S113004042C0000040C000003EC000003CC00000B0
S11300503AC0000038C0000036C0000034C00000C0
S113006032C0000030C000002EC000002CC00000D0
S11300702AC0000028C0000026C0000024C00000E0
S113008022C0000020C000001EC0000011241FBEBA
S1130090CFEFD0E1DEBFCDBF11E0A0E0B1E0ECECEA
S11300A0F1E000E00BBF02C007900D92A031B10750
S11300B0D9F721E0A0E1B1E001C01D92A231B2075D
S11300C0E1F772D081C09CCF809110019091110111
S11300D08031910530F4FC01E050FF4F808182BBF8
S11300E0089589E782BB08951F920F920FB60F926D
S11300F011240BB60F922F933F934F935F936F93FB
S11301007F938F939F93AF93BF93EF93FF938091CC
S113011010019091110101969093110180931001A7
S1130120D3DFFF91EF91BF91AF919F918F917F9119
S11301306F915F914F913F912F910F900BBE0F9054
S11301400FBE0F901F9018951F920F920FB60F922B
S113015011240BB60F922F933F934F935F936F939A
S11301607F938F939F93AF93BF93EF93FF9380916C
S11301701001909111010197909311018093100146
S1130180A3DFFF91EF91BF91AF919F918F917F91E9
S11301906F915F914F913F912F910F900BBE0F90F4
S11301A00FBE0F901F9018958FEF81BB12B88AB7BE
S11301B08F608ABF89B7806389BF10921101109242
S10F01C0100182DF7894FFCFF894FFCF89
S11301CC3F065B4F666D7D077F6F777C395E797177
S9030000FC
